:10000000792CFF3FFF3F0F34FF00030E83010317DE
:1000100094000A0883160313EF008A017008831204
:10002000A1000B1C37288B1D3728061E1B2801300A
:10003000D0000030D100061A2028D001D1010B10C9
:10004000861E272801300317900000309100031707
:10005000861A2C2890019101003083160313300674
:10006000031D342800302F06031D37280B108B1C6E
:1000700048280B1E48288312061C4428013083168A
:10008000C3000030C40047288316C301C4018B108D
:100090000B1D5F280313003083128100803083160C
:1000A0002E06F00080307002031D582800302D020B
:1000B000031C5E280130AD02031CAE030B1183123A
:1000C00003132108F00083166F088A0083120317B8
:1000D000140E8300FF0E7F0E0900000000000800D0
:1000E0000F3083120313FC004730FD00FD0B762810
:1000F000FC0B762800000000080021308312031357
:10010000FD00FD0B8128080083120317A41B8B2818
:10011000031308118D28031308150317241B9328B4
:10012000031388119528031388150317A41A9B2815
:10013000031308129D28031308160317241AA32873
:1001400003138812A5280313881683166E18AB288C
:1001500083120814AD288312081088146D208810AB
:100160000317A419B62803130811B8280313081598
:1001700003172419BE2803138811C02803138815F8
:100180000317A418C62803130812C8280313081657
:1001900003172418CE2803138812D02803138816B7
:1001A00083166E18D62883120814D82883120810D4
:1001B00088146D20881083166E1CE0287020E128BA
:1001C0007D20080083120313F801F9011030FC00B0
:1001D000710DF80DF90D7408F8027508031C750F00
:1001E000F9020318FA287408F80775080318750F40
:1001F000F9070310F00DF10DFC0BE8280800FA1FB9
:10020000F21300300800831603136E1083120317D5
:100210002308A400842083166E1408007B15FB1F9E
:1002200018290130F300F201F101F001FA0DF20C8E
:10023000FF300800F201F101F001F801F301003094
:10024000080033298030831203179E004629C030EE
:100250009E00462994309E004629D4309E004629AF
:1002600080309E004629831203171E08013A0319A5
:1002700022291E08023A031927291E08033A0319E6
:100280002A291E08043A03192D2930291F03F000DA
:100290001E08F00770089E007008A40084208316D2
:1002A0006E1083120317A1012108200784000008A3
:1002B000031964292108200784000008A3000321F2
:1002C00083120317A10A5429831603136E1408001E
:1002D000A0017208031D7D297108F2007008F10069
:1002E000F001A0157208031D7D297108F200F101CB
:1002F000A0112016720803198B292008F302031D90
:10030000031C8F290310F21B9329F00DF10DF20D40
:10031000F30B83298F290130FC001A219629023022
:10032000FC000E2196290430FC00FF2008000E304E
:1003300083120313FD00FD0B9B2900000800FB1432
:10034000FB1FA929FF30F300F200F100F000FA0DC5
:10035000F20CFF300800831603136B088A006A084A
:100360008200080083120317A1010530210203183F
:10037000C02921082007840020308000A10AB52967
:100380002108200784008001A10321082007A20082
:100390000A30F400F5011E08F0001F08F100E22009
:1003A0007808F0007908F1003030F00703172208D0
:1003B0008400700880000A30F400F5011E08F00087
:1003C0001F08F100E220700803179E0071089F00CB
:1003D00000307106031DEE2900307006031DF1295F
:1003E000F329A103C52908007B14FB1FFF29F20193
:1003F000FA1FFF30F200F100F000FA0DF20CFF30AE
:1004000008000130831203179E0001309F00223044
:10041000A0002121831288170630FB001330FC0056
:10042000AD30FD00FD0B122AFC0B122AFB0B122A29
:100430000000000088130630FB001330FC00AD30D4
:10044000FD00FD0B212AFC0B212AFB0B212A0000B9
:1004500000000813080083120313FB017308031D37
:1004600077080319822A72087606FA007708F307DC
:100470007E30031C3F2AF3020318852A422AF30226
:10048000031C882A7208F8007108FC007008FD003F
:10049000F817F6170310F201F101F0011830A0006F
:1004A0007D1C5C2A7408F00775080318750FF107A6
:1004B00076080318760FF207F20CF10CF00CF80C2A
:1004C000FC0CFD0C0310A00B502AF21B6C2AF80D3B
:1004D000F00DF10DF20DF3037B1B701C7E2AF81F4B
:1004E0007E2AF00A0319F10A0319F20A031D7E2A73
:1004F000F20CF10CF00CF30A0319852AFA1FF2131F
:1005000000308A2A01301A218A2A02309F218A2A41
:1005100004300E210000080083120313FB0173084E
:100520000319C92A7208FA00F2178E30F302F31F7A
:10053000CC2AF309F30A08307302031CAF2AF30034
:10054000F10D7208F100F20108307302031CAF2AAA
:10055000F300F10DF1017308031D0310B72A7308AE
:100560000319B72A0310F20CF10CF30BB22A7B1B10
:10057000711CC12A031CC12AF10A0319F20AF21BD9
:10058000D82AFA1FDB2AF209F109F10A0319F20A43
:10059000DB2AF201F101DB2A7B14FB1FDE2AF201C8
:1005A000FA1FDE2AFF30F200F100FA0DF20CDE2A0B
:1005B0000130FC00E02A0030FC00E02AFF30FC00A3
:1005C000FC080319E42AF4217108F0007208F10014
:1005D000080083120313D201D30100304F06031D1C
:1005E000F32A00304E06031DF92A01300317A40038
:1005F0008420013003179E0003309F003930A00093
:1006000021210230831203179E0006309F003330F1
:10061000A000212183120813CE0A0319CF0A080073
:1006200083120313D001D101CE01CF010030530654
:10063000031D1C2B00305206031D222B0130031713
:10064000A4008420013003179E0002309F005C301C
:10065000A000212183120817D20A0319D30A080027
:100660000030831203135B06031D382B00305A063B
:10067000031D3E2B01300317A40084200130031713
:100680009E0005309F005430A000212183120813E2
:10069000DA0A0319DB0A0800831203139F01C03032
:1006A0009F046F09F000700883169F051F179F179E
:1006B000831203171508F000F00D7010F00D701084
:1006C000F00D7010700803139F041F1497211F155D
:1006D0001F1D6C2B0000682B1F101E08F100F0017D
:1006E00083161E08F0040030F10408008316031777
:1006F0008C1C7C2B0000762B831215088D001608AD
:100700008C0083168C130C150B08F0008B135530DE
:100710008D00AA308D008C14F01B902B8B13912B25
:100720008B170C110800AB218A110A128000840A71
:10073000EA0A0319EB0AF003031D932B0800831642
:1007400003138810081088120812881108118312E8
:100750008810081008118811081288127020702063
:1007600070200816881688146D2088107020881450
:100770006D208810702088146D20881070208812D9
:1007800088146D208810702088146D20881008123D
:10079000081588146D208810702008118816881498
:1007A0006D208810881288146D208810702088149D
:1007B0006D208810881688146D208810702088128B
:1007C00088146D2088100815881508168816881456
:1007D0006D208810702083166E1408008312031396
:1007E0007008F8007108F000F101F201F301FB015B
:1007F000FC019630F300FA017008F1007808F0006F
:10080000F801F201682108008312031715088D0012
:1008100083168C130C1483120C08F000080083124A
:1008200003179A019B0115089C0016089D00803053
:100830001606F00080307002031D202C00301502D7
:1008400003182E2C01309A0000309B001508003C44
:100850009C001608031C013E9D019D021C089E0081
:100860001D089F001708A000B22106309800003034
:1008700099001908003C031D3F2C1808003C031880
:100880005A2C18081707F20001301802F000003047
:10089000031C013E1902F1007008170784000008CC
:1008A000F000720884007008800001309802031C78
:1008B0009903392C17088400203080001A081B0483
:1008C0000319782C9801990118081707840000086B
:1008D000203A031D6F2C980A0319990A642C0130E1
:1008E0009802031C99031808170784002D30800014
:1008F00008008A2683160313880183128801831651
:100900000614061686168B178B150B16011700306A
:10091000831281008B168316811201128111011539
:10092000811401149F230C3083120317A400842028
:10093000013003179E0005309F004630A0002121A2
:100940000A30FB002230FC00A130FD00FD0BA62C7C
:10095000FC0BA62CFB0BA62C013083120317A40062
:100960008420013003179E0003309F00A030A000B8
:1009700021210230831203179E0003309F00B33001
:10098000A00021210D30FB002D30FC00D730FD00F0
:10099000FD0BC82CFC0BC82CFB0BC82C0000000066
:1009A000013083120317A400842083120030031740
:1009B0001106031DDD2C01301006031D1A2D013018
:1009C000A4008420031795018316031331088312B2
:1009D0000317960076238312950104247008920071
:1009E000930101309E0002309F00D930A0002121E8
:1009F000831203171208950013089600C53097005C
:100A00000F2402309E0001309F00C530A00021213C
:100A10000B30FB002630FC005D30FD00FD0B0E2D81
:100A2000FC0B0E2DFB0B0E2D000000008312031794
:100A3000900191010030831603134406031D222DFB
:100A400001304306031D272D30238B14EC2D831218
:100A5000DA01DB0100304F06031D302D00304E0659
:100A6000031D332D1023031795014C23EE2348302B
:100A7000F400E130F5007A30F6007D30F7002B22EB
:100A80008C2270088316EC007108ED000030831290
:100A90005106031D4D2D01305006031D512D10230D
:100AA0000B14803083166D06F00080307002031D39
:100AB0005B2D32306C02031C602D8312ED01EE01C0
:100AC0008030F000803083166D067002031D6A2DA1
:100AD0006C081E3C0318762D003083126E06031D31
:100AE000732D01306D060319762D892D0030831684
:100AF0006D06031D7D2D1C306C06031D872D831292
:100B0000EB01EC01E1308316AD001130AE00102393
:100B1000A22D00304F06031D8F2D00304E06031D01
:100B20009E2D803083166D06F00080307002031D0C
:100B30009B2D32306C0203189E2DA22D8312ED01E5
:100B4000EE01E922803083166D06F00080307002DD
:100B5000031DAC2D1D306C020318E02D8030F00019
:100B600080302E067002031DB72D2D08003C03189F
:100B7000E02D8312031795014C23EE234830F40037
:100B8000E130F5007A30F6007D30F7002B228C2220
:100B900070088316EC007108ED00003083126C06BB
:100BA000031DD42D00306B06031DDA2D8316B10A08
:100BB0000319B20A8312EB0A0319EC0A0122A22DCF
:100BC0008312061EE92D01308316AF000030B000FD
:100BD000EC2D8316AF01B001D52CED2DFF3FFF3F6B
:100BE000FF3FFF3FFF3F533479347334743465342F
:100BF0006D346534203465346E342034703461349F
:100C00006E346E3465340034673461347A346F3452
:100C10006E340034463469346E34203461347234B6
:100C200072346F347334613467346534003457344C
:100C300065346C3463346F346D346534003400349F
:100C40000034003400340034003450344C34553413
:100C50004934453400340034003441347234723441
:100C60006F347334613467346534203467346134ED
:100C70007A346F346E34003400340034003400347D
:100C8000423479342034413470346534783441341A
:100C90006C346C34693461346E34633465340034DC
:100CA00000340034003400340034003400340034A4
:100CB0000034003400340034003400340034003494
:100CC0000034003400340034003400344E346F34C7
:100CD0006D346234723465342034643465342034C5
:100CE000703461346E346E3465343A3400345334C5
:100CF0004D34413452345434203447344134523426
:100D0000443445344E34003400340034013400346B
:100D1000E134113422308400493083120313F0008F
:100D2000F3308316EA000530EB009323A0308400F3
:100D30000D3083120313F00077308316EA0006307B
:100D4000EB0093236B308400043083120313F00014
:100D500084308316EA000630EB009323AD30840024
:100D6000023083120313F00088308316EA00063045
:100D7000EB0093236F308400013083120313F000E3
:100D800003308316EA000030EB009323AF30840079
:100D90003B3083120313F0003C308316EA00063028
:100DA000EB0093230800FF3FFF3FFF3FFF3FFF3F64
:02400E004A2F37
:00000001FF
